:100000000C9434000C9451000C9451000C94640135
:100010000C9451000C9451000C9451000C9451001C
:100020000C9451000C9451000C9451000C9420013C
:100030000C9451000C9451000C9451000C945100FC
:100040000C9451000C9497010C9451000C945100A5
:100050000C9451000C9451000C9451000C945100DC
:100060000C9451000C94510011241FBECFEFD8E026
:10007000DEBFCDBF11E0A0E0B1E0E8EDF7E002C0E7
:1000800005900D92A430B107D9F721E0A4E0B1E0CA
:1000900001C01D92A431B207E1F70E9462020C94E4
:1000A000EA030C940000E1E8F0E08081886080833E
:1000B0001092850010928400EFE6F0E0808182606B
:1000C00080833C9A3B9A3A9A209100013091010139
:1000D000409102015091030160E07CE782E998E4DD
:1000E0000E946502462F572F682F792F40930901F0
:1000F00050930A0160930B0170930C0184B18063EB
:1001000084B98CB580648CBD8CB580688CBD20981A
:10011000289AE8E6F0E0808181608083EBE6F0E0F9
:1001200080818160808378940895439A81E08093F0
:100130001201089543988FEF809312010895CF9292
:10014000DF92EF92FF92CF93F89460910901709142
:100150000A0180910B0190910C01C0910F0120E0E8
:1001600030E048EC52E40E9487036B017C016C2F65
:1001700070E080E090E00E94F9029B01AC01C701B1
:10018000B6010E9465020E94CD02709389006093BF
:100190008800209110013091110180910D01909102
:1001A0000E01281739071CF40E9495001EC02091EB
:1001B00010013091110180910D0190910E01821773
:1001C00093071CF40E949A0010C0209110013091F6
:1001D000110180910D0190910E012817390729F422
:1001E0001092130122E030E015C0109285001092A9
:1001F000840081E080931301E1E8F0E08081816078
:100200008083EFE6F0E0808182608083429A789478
:1002100021E030E0822F932FCF91FF90EF90DF907D
:10022000CF900895EFE6F0E080818D7F8083E1E854
:10023000F0E080818E7F80834298109213010895B0
:100240001F920F920FB60F9211242F933F934F934B
:100250005F936F937F938F939F93AF93BF93EF932E
:10026000FF93189B20C0349B02C044981CC0449A42
:10027000209112018091100190911101820F911D26
:1002800027FD9A9590931101809310012091100100
:100290003091110180910D0190910E0128173907BD
:1002A00011F40E941201FF91EF91BF91AF919F91C4
:1002B0008F917F916F915F914F913F912F910F900F
:1002C0000FBE0F901F9018951F920F920FB60F92AE
:1002D00011242F933F934F935F936F937F938F934B
:1002E0009F93AF93BF93EF93FF93109208011092E7
:1002F0000701109206011092050110920401189B4B
:1003000003C00E949F0002C00E941201FF91EF9162
:10031000BF91AF919F918F917F916F915F914F911D
:100320003F912F910F900FBE0F901F9018951F9225
:100330000F920FB60F9211242F938F939F93189BB8
:1003400012C08091080181110EC08091100190911E
:100350001101892F990F990B8EBD809108018F5F34
:100360008093080122C0189B0FC080910801813042
:1003700059F480911001909111018EBD8091080176
:100380008F5F8093080111C0189B0FC080910801F6
:10039000823059F4809113018EBD809108018F5FE6
:1003A000809308011092080185C0189983C080913C
:1003B000080181110BC08EB58093070181E08EBDCD
:1003C000809108018F5F809308012CC08091080103
:1003D000813059F48EB58093060182E08EBD809104
:1003E00008018F5F809308011DC080910801823051
:1003F00059F48EB58093050183E08EBD809108018C
:100400008F5F809308010EC080910801833051F402
:100410008EB58093040184E08EBD809108018F5FCA
:1004200080930801809108018430F1F480910701E4
:10043000803FD1F485E08EBD20910601922F80E0AF
:1004400090930E0180930D012091050180910D0183
:1004500090910E01820F911D90930E0180930D01DA
:100460008091040180930F0180910801843011F57F
:1004700080910701813FF1F486E08EBD2091060155
:10048000922F80E09093110180931001209105013B
:100490008091100190911101820F911D9093110193
:1004A00080931001809110019091110190930E01A1
:1004B00080930D019F918F912F910F900FBE0F9000
:1004C0001F9018950E945300FFCF0CD0E6C0DED0DD
:1004D00040F0D5D030F021F45F3F19F0C7C0511182
:1004E00010C1CAC0EBD098F39923C9F35523B1F3D7
:1004F000951B550BBB27AA2762177307840738F093
:100500009F5F5F4F220F331F441FAA1FA9F333D0F1
:100510000E2E3AF0E0E830D091505040E695001CA5
:10052000CAF729D0FE2F27D0660F771F881FBB1F61
:10053000261737074807AB07B0E809F0BB0B802D3B
:10054000BF01FF2793585F4F2AF09E3F510568F087
:100550008DC0D7C05F3FECF3983EDCF3869577956E
:100560006795B795F7959F5FC9F7880F911D969589
:10057000879597F90895E1E0660F771F881FBB1FE5
:10058000621773078407BA0720F0621B730B840B92
:10059000BA0BEE1F88F7E095089598D088F09F5722
:1005A00090F0B92F9927B751A0F0D1F0660F771FBF
:1005B000881F991F1AF0BA95C9F712C0B13081F09F
:1005C0009FD0B1E008959CC0672F782F8827B85F2F
:1005D00039F0B93FCCF3869577956795B395D9F700
:1005E0003EF490958095709561957F4F8F4F9F4F0A
:1005F0000895E89409C097FB3EF490958095709516
:1006000061957F4F8F4F9F4F9923A9F0F92F96E95E
:10061000BB279395F695879577956795B795F111D3
:10062000F8CFFAF4BB0F11F460FF1BC06F5F7F4F70
:100630008F4F9F4F16C0882311F096E911C0772382
:1006400021F09EE8872F762F05C0662371F096E88B
:10065000862F70E060E02AF09A95660F771F881F5A
:10066000DAF7880F9695879597F9089597F99F6718
:1006700080E870E060E008959FEF80EC089500242A
:100680000A941616170618060906089500240A94F7
:1006900012161306140605060895092E0394000C7D
:1006A00011F4882352F0BB0F40F4BF2B11F460FF0C
:1006B00004C06F5F7F4F8F4F9F4F089557FD905835
:1006C000440F551F59F05F3F71F04795880F97FB16
:1006D000991F61F09F3F79F08795089512161306D0
:1006E0001406551FF2CF4695F1DF08C016161706FF
:1006F0001806991FF1CF8695710561050894089534
:10070000E894BB2766277727CB0197F908950BD08C
:10071000C4CFB5DF28F0BADF18F0952309F0A6CFD3
:10072000ABCF1124EECFCADFA0F3959FD1F3950F85
:1007300050E0551F629FF001729FBB27F00DB11D65
:10074000639FAA27F00DB11DAA1F649F6627B00DF5
:10075000A11D661F829F2227B00DA11D621F739FDE
:10076000B00DA11D621F839FA00D611D221F749FEC
:100770003327A00D611D231F849F600D211D822F33
:10078000762F6A2F11249F5750408AF0E1F088237A
:100790004AF0EE0FFF1FBB1F661F771F881F915087
:1007A0005040A9F79E3F510570F060CFAACF5F3F40
:1007B000ECF3983EDCF3869577956795B795F795BA
:1007C000E7959F5FC1F7FE2B880F911D9695879542
:0807D00097F90895F894FFCF9A
:0407D8000000FA43E0
:00000001FF
